{
    "_format": "hh-sol-artifact-1",
    "contractName": "Web3RSVP",
    "sourceName": "contracts/Web3RSVP.sol",
    "abi": [
        {
            "anonymous": false,
            "inputs": [
                {
                    "indexed": false,
                    "internalType": "bytes32",
                    "name": "eventID",
                    "type": "bytes32"
                },
                {
                    "indexed": false,
                    "internalType": "address",
                    "name": "attendeeAddress",
                    "type": "address"
                }
            ],
            "name": "ConfirmedAttendee",
            "type": "event"
        },
        {
            "anonymous": false,
            "inputs": [
                {
                    "indexed": false,
                    "internalType": "bytes32",
                    "name": "eventID",
                    "type": "bytes32"
                }
            ],
            "name": "DepositsPaidOut",
            "type": "event"
        },
        {
            "anonymous": false,
            "inputs": [
                {
                    "indexed": false,
                    "internalType": "bytes32",
                    "name": "eventID",
                    "type": "bytes32"
                },
                {
                    "indexed": false,
                    "internalType": "address",
                    "name": "creatorAddress",
                    "type": "address"
                },
                {
                    "indexed": false,
                    "internalType": "uint256",
                    "name": "eventTimestamp",
                    "type": "uint256"
                },
                {
                    "indexed": false,
                    "internalType": "uint256",
                    "name": "maxCapacity",
                    "type": "uint256"
                },
                {
                    "indexed": false,
                    "internalType": "uint256",
                    "name": "deposit",
                    "type": "uint256"
                },
                {
                    "indexed": false,
                    "internalType": "string",
                    "name": "eventDataCID",
                    "type": "string"
                }
            ],
            "name": "NewEventCreated",
            "type": "event"
        },
        {
            "anonymous": false,
            "inputs": [
                {
                    "indexed": false,
                    "internalType": "bytes32",
                    "name": "eventID",
                    "type": "bytes32"
                },
                {
                    "indexed": false,
                    "internalType": "address",
                    "name": "attendeeAddress",
                    "type": "address"
                }
            ],
            "name": "NewRSVP",
            "type": "event"
        },
        {
            "inputs": [
                {
                    "internalType": "bytes32",
                    "name": "eventId",
                    "type": "bytes32"
                }
            ],
            "name": "confirmAllAttendes",
            "outputs": [],
            "stateMutability": "nonpayable",
            "type": "function"
        },
        {
            "inputs": [
                {
                    "internalType": "bytes32",
                    "name": "eventId",
                    "type": "bytes32"
                },
                {
                    "internalType": "address",
                    "name": "attendee",
                    "type": "address"
                }
            ],
            "name": "confirmAttendee",
            "outputs": [],
            "stateMutability": "nonpayable",
            "type": "function"
        },
        {
            "inputs": [
                {
                    "internalType": "uint256",
                    "name": "eventTimestamp",
                    "type": "uint256"
                },
                {
                    "internalType": "uint256",
                    "name": "deposit",
                    "type": "uint256"
                },
                {
                    "internalType": "uint256",
                    "name": "maxCapacity",
                    "type": "uint256"
                },
                {
                    "internalType": "string",
                    "name": "eventDataCID",
                    "type": "string"
                }
            ],
            "name": "createNewEvent",
            "outputs": [],
            "stateMutability": "nonpayable",
            "type": "function"
        },
        {
            "inputs": [
                {
                    "internalType": "bytes32",
                    "name": "eventId",
                    "type": "bytes32"
                }
            ],
            "name": "createNewRSVP",
            "outputs": [],
            "stateMutability": "payable",
            "type": "function"
        },
        {
            "inputs": [
                {
                    "internalType": "bytes32",
                    "name": "",
                    "type": "bytes32"
                }
            ],
            "name": "idToEvent",
            "outputs": [
                {
                    "internalType": "bytes32",
                    "name": "eventId",
                    "type": "bytes32"
                },
                {
                    "internalType": "string",
                    "name": "eventDataCID",
                    "type": "string"
                },
                {
                    "internalType": "address",
                    "name": "eventOwner",
                    "type": "address"
                },
                {
                    "internalType": "uint256",
                    "name": "eventTimestamp",
                    "type": "uint256"
                },
                {
                    "internalType": "uint256",
                    "name": "deposit",
                    "type": "uint256"
                },
                {
                    "internalType": "uint256",
                    "name": "maxCapacity",
                    "type": "uint256"
                },
                {
                    "internalType": "bool",
                    "name": "paidOut",
                    "type": "bool"
                }
            ],
            "stateMutability": "view",
            "type": "function"
        },
        {
            "inputs": [
                {
                    "internalType": "bytes32",
                    "name": "eventId",
                    "type": "bytes32"
                }
            ],
            "name": "withdrawUnclaimedDeposits",
            "outputs": [],
            "stateMutability": "nonpayable",
            "type": "function"
        }
    ],
    "bytecode": "0x608060405234801561001057600080fd5b50612146806100206000396000f3fe6080604052600436106100545760003560e01c806292098c1461005957806317f0165a146100825780636dcdf2cd1461009e57806379747571146100c7578063909ef021146100f0578063f00dab5d14610133575b600080fd5b34801561006557600080fd5b50610080600480360381019061007b9190611667565b61015c565b005b61009c60048036038101906100979190611602565b610378565b005b3480156100aa57600080fd5b506100c560048036038101906100c0919061162b565b61060b565b005b3480156100d357600080fd5b506100ee60048036038101906100e99190611602565b610b7c565b005b3480156100fc57600080fd5b5061011760048036038101906101129190611602565b610ffe565b60405161012a9796959493929190611a7d565b60405180910390f35b34801561013f57600080fd5b5061015a60048036038101906101559190611602565b6110f5565b005b6000333087878760405160200161017795949392919061195b565b60405160208183030381529060405280519060200120905060608060405180610120016040528084815260200186868080601f016020809104026020016040519081016040528093929190818152602001838380828437600081840152601f19601f8201169050808301925050505050505081526020013373ffffffffffffffffffffffffffffffffffffffff1681526020018981526020018881526020018781526020018381526020018281526020016000151581525060008085815260200190815260200160002060008201518160000155602082015181600101908051906020019061026792919061144c565b5060408201518160020160006101000a81548173ffffffffffffffffffffffffffffffffffffffff021916908373ffffffffffffffffffffffffffffffffffffffff160217905550606082015181600301556080820151816004015560a0820151816005015560c08201518160060190805190602001906102e99291906114d2565b5060e08201518160070190805190602001906103069291906114d2565b506101008201518160080160006101000a81548160ff0219169083151502179055509050507f2553138c3f9c9008f266dbdbe9fc64f5b71e098d06ef714a190a65a8b9fc6bf383338a898b8a8a6040516103669796959493929190611a13565b60405180910390a15050505050505050565b60008060008381526020019081526020016000209050806004015434146103d4576040517f08c379a00000000000000000000000000000000000000000000000000000000081526004016103cb90611bb3565b60405180910390fd5b806003015442111561041b576040517f08c379a000000000000000000000000000000000000000000000000000000000815260040161041290611b53565b60405180910390fd5b8060050154816006018054905010610468576040517f08c379a000000000000000000000000000000000000000000000000000000000815260040161045f90611b93565b60405180910390fd5b60005b81600601805490508160ff161015610568573373ffffffffffffffffffffffffffffffffffffffff16826006018260ff16815481106104d3577f4e487b7100000000000000000000000000000000000000000000000000000000600052603260045260246000fd5b9060005260206000200160009054906101000a900473ffffffffffffffffffffffffffffffffffffffff1673ffffffffffffffffffffffffffffffffffffffff161415610555576040517f08c379a000000000000000000000000000000000000000000000000000000000815260040161054c90611b73565b60405180910390fd5b808061056090611e31565b91505061046b565b5080600601339080600181540180825580915050600190039060005260206000200160009091909190916101000a81548173ffffffffffffffffffffffffffffffffffffffff021916908373ffffffffffffffffffffffffffffffffffffffff1602179055507fb79f4240bbdd272d98e02a5db7f0cf156e5fc000961c517670a26eeeec63ed9082336040516105ff9291906119ea565b60405180910390a15050565b600080600084815260200190815260200160002090508060020160009054906101000a900473ffffffffffffffffffffffffffffffffffffffff1673ffffffffffffffffffffffffffffffffffffffff163373ffffffffffffffffffffffffffffffffffffffff16146106b3576040517f08c379a00000000000000000000000000000000000000000000000000000000081526004016106aa90611c33565b60405180910390fd5b600080600090505b82600601805490508160ff1610156107ea578373ffffffffffffffffffffffffffffffffffffffff16836006018260ff1681548110610723577f4e487b7100000000000000000000000000000000000000000000000000000000600052603260045260246000fd5b9060005260206000200160009054906101000a900473ffffffffffffffffffffffffffffffffffffffff1673ffffffffffffffffffffffffffffffffffffffff1614156107d757826006018160ff16815481106107a9577f4e487b7100000000000000000000000000000000000000000000000000000000600052603260045260246000fd5b9060005260206000200160009054906101000a900473ffffffffffffffffffffffffffffffffffffffff1691505b80806107e290611e31565b9150506106bb565b508273ffffffffffffffffffffffffffffffffffffffff168173ffffffffffffffffffffffffffffffffffffffff1614610859576040517f08c379a000000000000000000000000000000000000000000000000000000000815260040161085090611bf3565b60405180910390fd5b60005b82600701805490508160ff161015610959578373ffffffffffffffffffffffffffffffffffffffff16836007018260ff16815481106108c4577f4e487b7100000000000000000000000000000000000000000000000000000000600052603260045260246000fd5b9060005260206000200160009054906101000a900473ffffffffffffffffffffffffffffffffffffffff1673ffffffffffffffffffffffffffffffffffffffff161415610946576040517f08c379a000000000000000000000000000000000000000000000000000000000815260040161093d90611af3565b60405180910390fd5b808061095190611e31565b91505061085c565b50600015158260080160009054906101000a900460ff161515146109b2576040517f08c379a00000000000000000000000000000000000000000000000000000000081526004016109a990611b13565b60405180910390fd5b81600701839080600181540180825580915050600190039060005260206000200160009091909190916101000a81548173ffffffffffffffffffffffffffffffffffffffff021916908373ffffffffffffffffffffffffffffffffffffffff16021790555060008373ffffffffffffffffffffffffffffffffffffffff168360040154604051610a41906119ba565b60006040518083038185875af1925050503d8060008114610a7e576040519150601f19603f3d011682016040523d82523d6000602084013e610a83565b606091505b5050905080610afc5782600701805480610ac6577f4e487b7100000000000000000000000000000000000000000000000000000000600052603160045260246000fd5b6001900381819060005260206000200160006101000a81549073ffffffffffffffffffffffffffffffffffffffff021916905590555b80610b3c576040517f08c379a0000000000000000000000000000000000000000000000000000000008152600401610b3390611b33565b60405180910390fd5b7ff8d1583a733d83bdd3ef5464129d0a95a36d62b382d31c6d0467a61f4264381b8533604051610b6d9291906119ea565b60405180910390a15050505050565b60008060008381526020019081526020016000206040518061012001604052908160008201548152602001600182018054610bb690611dff565b80601f0160208091040260200160405190810160405280929190818152602001828054610be290611dff565b8015610c2f5780601f10610c0457610100808354040283529160200191610c2f565b820191906000526020600020905b815481529060010190602001808311610c1257829003601f168201915b505050505081526020016002820160009054906101000a900473ffffffffffffffffffffffffffffffffffffffff1673ffffffffffffffffffffffffffffffffffffffff1673ffffffffffffffffffffffffffffffffffffffff16815260200160038201548152602001600482015481526020016005820154815260200160068201805480602002602001604051908101604052809291908181526020018280548015610d3157602002820191906000526020600020905b8160009054906101000a900473ffffffffffffffffffffffffffffffffffffffff1673ffffffffffffffffffffffffffffffffffffffff1681526020019060010190808311610ce7575b5050505050815260200160078201805480602002602001604051908101604052809291908181526020018280548015610dbf57602002820191906000526020600020905b8160009054906101000a900473ffffffffffffffffffffffffffffffffffffffff1673ffffffffffffffffffffffffffffffffffffffff1681526020019060010190808311610d75575b505050505081526020016008820160009054906101000a900460ff161515151581525050905080610100015115610e2b576040517f08c379a0000000000000000000000000000000000000000000000000000000008152600401610e2290611bd3565b60405180910390fd5b62093a808160600151610e3e9190611c7a565b421015610e4a57600080fd5b806040015173ffffffffffffffffffffffffffffffffffffffff163373ffffffffffffffffffffffffffffffffffffffff1614610ebc576040517f08c379a0000000000000000000000000000000000000000000000000000000008152600401610eb390611c13565b60405180910390fd5b60008160e00151518260c0015151610ed49190611d2a565b90506000826080015182610ee89190611cd0565b905060018361010001901515908115158152505060003373ffffffffffffffffffffffffffffffffffffffff1682604051610f22906119ba565b60006040518083038185875af1925050503d8060008114610f5f576040519150601f19603f3d011682016040523d82523d6000602084013e610f64565b606091505b5050905080610f80576000846101000190151590811515815250505b80610fc0576040517f08c379a0000000000000000000000000000000000000000000000000000000008152600401610fb790611b33565b60405180910390fd5b7f393073ea1365f611c3d2f240c992960d2b99dc81715555d3fc40fc55ba80af9c85604051610fef91906119cf565b60405180910390a15050505050565b600060205280600052604060002060009150905080600001549080600101805461102790611dff565b80601f016020809104026020016040519081016040528092919081815260200182805461105390611dff565b80156110a05780601f10611075576101008083540402835291602001916110a0565b820191906000526020600020905b81548152906001019060200180831161108357829003601f168201915b5050505050908060020160009054906101000a900473ffffffffffffffffffffffffffffffffffffffff16908060030154908060040154908060050154908060080160009054906101000a900460ff16905087565b6000806000838152602001908152602001600020604051806101200160405290816000820154815260200160018201805461112f90611dff565b80601f016020809104026020016040519081016040528092919081815260200182805461115b90611dff565b80156111a85780601f1061117d576101008083540402835291602001916111a8565b820191906000526020600020905b81548152906001019060200180831161118b57829003601f168201915b505050505081526020016002820160009054906101000a900473ffffffffffffffffffffffffffffffffffffffff1673ffffffffffffffffffffffffffffffffffffffff1673ffffffffffffffffffffffffffffffffffffffff168152602001600382015481526020016004820154815260200160058201548152602001600682018054806020026020016040519081016040528092919081815260200182805480156112aa57602002820191906000526020600020905b8160009054906101000a900473ffffffffffffffffffffffffffffffffffffffff1673ffffffffffffffffffffffffffffffffffffffff1681526020019060010190808311611260575b505050505081526020016007820180548060200260200160405190810160405280929190818152602001828054801561133857602002820191906000526020600020905b8160009054906101000a900473ffffffffffffffffffffffffffffffffffffffff1673ffffffffffffffffffffffffffffffffffffffff16815260200190600101908083116112ee575b505050505081526020016008820160009054906101000a900460ff1615151515815250509050806040015173ffffffffffffffffffffffffffffffffffffffff163373ffffffffffffffffffffffffffffffffffffffff16146113d0576040517f08c379a00000000000000000000000000000000000000000000000000000000081526004016113c790611c33565b60405180910390fd5b60005b8160c00151518160ff16101561144757611434838360c001518360ff1681518110611427577f4e487b7100000000000000000000000000000000000000000000000000000000600052603260045260246000fd5b602002602001015161060b565b808061143f90611e31565b9150506113d3565b505050565b82805461145890611dff565b90600052602060002090601f01602090048101928261147a57600085556114c1565b82601f1061149357805160ff19168380011785556114c1565b828001600101855582156114c1579182015b828111156114c05782518255916020019190600101906114a5565b5b5090506114ce919061155c565b5090565b82805482825590600052602060002090810192821561154b579160200282015b8281111561154a5782518260006101000a81548173ffffffffffffffffffffffffffffffffffffffff021916908373ffffffffffffffffffffffffffffffffffffffff160217905550916020019190600101906114f2565b5b509050611558919061155c565b5090565b5b8082111561157557600081600090555060010161155d565b5090565b600081359050611588816120cb565b92915050565b60008135905061159d816120e2565b92915050565b60008083601f8401126115b557600080fd5b8235905067ffffffffffffffff8111156115ce57600080fd5b6020830191508360018202830111156115e657600080fd5b9250929050565b6000813590506115fc816120f9565b92915050565b60006020828403121561161457600080fd5b60006116228482850161158e565b91505092915050565b6000806040838503121561163e57600080fd5b600061164c8582860161158e565b925050602061165d85828601611579565b9150509250929050565b60008060008060006080868803121561167f57600080fd5b600061168d888289016115ed565b955050602061169e888289016115ed565b94505060406116af888289016115ed565b935050606086013567ffffffffffffffff8111156116cc57600080fd5b6116d8888289016115a3565b92509250509295509295909350565b6116f081611d5e565b82525050565b61170761170282611d5e565b611e5b565b82525050565b61171681611d70565b82525050565b61172581611d7c565b82525050565b60006117378385611c69565b9350611744838584611dbd565b61174d83611ee7565b840190509392505050565b600061176382611c53565b61176d8185611c69565b935061177d818560208601611dcc565b61178681611ee7565b840191505092915050565b600061179e600f83611c69565b91506117a982611f05565b602082019050919050565b60006117c1601083611c69565b91506117cc82611f2e565b602082019050919050565b60006117e4601483611c69565b91506117ef82611f57565b602082019050919050565b6000611807601083611c69565b915061181282611f80565b602082019050919050565b600061182a601183611c69565b915061183582611fa9565b602082019050919050565b600061184d601f83611c69565b915061185882611fd2565b602082019050919050565b6000611870600a83611c69565b915061187b82611ffb565b602082019050919050565b6000611893600c83611c69565b915061189e82612024565b602082019050919050565b60006118b6601283611c69565b91506118c18261204d565b602082019050919050565b60006118d9600083611c5e565b91506118e482612076565b600082019050919050565b60006118fc601383611c69565b915061190782612079565b602082019050919050565b600061191f600e83611c69565b915061192a826120a2565b602082019050919050565b61193e81611da6565b82525050565b61195561195082611da6565b611e7f565b82525050565b600061196782886116f6565b60148201915061197782876116f6565b6014820191506119878286611944565b6020820191506119978285611944565b6020820191506119a78284611944565b6020820191508190509695505050505050565b60006119c5826118cc565b9150819050919050565b60006020820190506119e4600083018461171c565b92915050565b60006040820190506119ff600083018561171c565b611a0c60208301846116e7565b9392505050565b600060c082019050611a28600083018a61171c565b611a3560208301896116e7565b611a426040830188611935565b611a4f6060830187611935565b611a5c6080830186611935565b81810360a0830152611a6f81848661172b565b905098975050505050505050565b600060e082019050611a92600083018a61171c565b8181036020830152611aa48189611758565b9050611ab360408301886116e7565b611ac06060830187611935565b611acd6080830186611935565b611ada60a0830185611935565b611ae760c083018461170d565b98975050505050505050565b60006020820190508181036000830152611b0c81611791565b9050919050565b60006020820190508181036000830152611b2c816117b4565b9050919050565b60006020820190508181036000830152611b4c816117d7565b9050919050565b60006020820190508181036000830152611b6c816117fa565b9050919050565b60006020820190508181036000830152611b8c8161181d565b9050919050565b60006020820190508181036000830152611bac81611840565b9050919050565b60006020820190508181036000830152611bcc81611863565b9050919050565b60006020820190508181036000830152611bec81611886565b9050919050565b60006020820190508181036000830152611c0c816118a9565b9050919050565b60006020820190508181036000830152611c2c816118ef565b9050919050565b60006020820190508181036000830152611c4c81611912565b9050919050565b600081519050919050565b600081905092915050565b600082825260208201905092915050565b6000611c8582611da6565b9150611c9083611da6565b9250827fffffffffffffffffffffffffffffffffffffffffffffffffffffffffffffffff03821115611cc557611cc4611e89565b5b828201905092915050565b6000611cdb82611da6565b9150611ce683611da6565b9250817fffffffffffffffffffffffffffffffffffffffffffffffffffffffffffffffff0483118215151615611d1f57611d1e611e89565b5b828202905092915050565b6000611d3582611da6565b9150611d4083611da6565b925082821015611d5357611d52611e89565b5b828203905092915050565b6000611d6982611d86565b9050919050565b60008115159050919050565b6000819050919050565b600073ffffffffffffffffffffffffffffffffffffffff82169050919050565b6000819050919050565b600060ff82169050919050565b82818337600083830152505050565b60005b83811015611dea578082015181840152602081019050611dcf565b83811115611df9576000848401525b50505050565b60006002820490506001821680611e1757607f821691505b60208210811415611e2b57611e2a611eb8565b5b50919050565b6000611e3c82611db0565b915060ff821415611e5057611e4f611e89565b5b600182019050919050565b6000611e6682611e6d565b9050919050565b6000611e7882611ef8565b9050919050565b6000819050919050565b7f4e487b7100000000000000000000000000000000000000000000000000000000600052601160045260246000fd5b7f4e487b7100000000000000000000000000000000000000000000000000000000600052602260045260246000fd5b6000601f19601f8301169050919050565b60008160601b9050919050565b7f414c524541445920434c41494d45440000000000000000000000000000000000600082015250565b7f414c52454144592050414944204f555400000000000000000000000000000000600082015250565b7f4661696c656420746f2073656e64204574686572000000000000000000000000600082015250565b7f414c52454144592048415050454e454400000000000000000000000000000000600082015250565b7f414c524541445920434f4e4649524d4544000000000000000000000000000000600082015250565b7f54686973206576656e7420686173207265616368656420636170616369747900600082015250565b7f4e4f5420454e4f55474800000000000000000000000000000000000000000000600082015250565b7f414c524541445920504149440000000000000000000000000000000000000000600082015250565b7f4e4f205253565020544f20434f4e4649524d0000000000000000000000000000600082015250565b50565b7f4d555354204245204556454e54204f574e455200000000000000000000000000600082015250565b7f4e4f5420415554484f52495a4544000000000000000000000000000000000000600082015250565b6120d481611d5e565b81146120df57600080fd5b50565b6120eb81611d7c565b81146120f657600080fd5b50565b61210281611da6565b811461210d57600080fd5b5056fea2646970667358221220999638c893c078e99542a3273d3cc087d11b611d3d87ad6297204b35837fb53264736f6c63430008040033",
    "linkReferences": {},
    "deployedLinkReferences": {}
}